{
  "_format": "hh-sol-artifact-1",
  "contractName": "KreediaContract",
  "sourceName": "contracts/KreediaContract.sol",
  "abi": [
    {
      "inputs": [
        {
          "internalType": "address",
          "name": "initialOwner",
          "type": "address"
        }
      ],
      "stateMutability": "nonpayable",
      "type": "constructor"
    },
    {
      "inputs": [
        {
          "internalType": "address",
          "name": "sender",
          "type": "address"
        },
        {
          "internalType": "uint256",
          "name": "tokenId",
          "type": "uint256"
        },
        {
          "internalType": "address",
          "name": "owner",
          "type": "address"
        }
      ],
      "name": "ERC721IncorrectOwner",
      "type": "error"
    },
    {
      "inputs": [
        {
          "internalType": "address",
          "name": "operator",
          "type": "address"
        },
        {
          "internalType": "uint256",
          "name": "tokenId",
          "type": "uint256"
        }
      ],
      "name": "ERC721InsufficientApproval",
      "type": "error"
    },
    {
      "inputs": [
        {
          "internalType": "address",
          "name": "approver",
          "type": "address"
        }
      ],
      "name": "ERC721InvalidApprover",
      "type": "error"
    },
    {
      "inputs": [
        {
          "internalType": "address",
          "name": "operator",
          "type": "address"
        }
      ],
      "name": "ERC721InvalidOperator",
      "type": "error"
    },
    {
      "inputs": [
        {
          "internalType": "address",
          "name": "owner",
          "type": "address"
        }
      ],
      "name": "ERC721InvalidOwner",
      "type": "error"
    },
    {
      "inputs": [
        {
          "internalType": "address",
          "name": "receiver",
          "type": "address"
        }
      ],
      "name": "ERC721InvalidReceiver",
      "type": "error"
    },
    {
      "inputs": [
        {
          "internalType": "address",
          "name": "sender",
          "type": "address"
        }
      ],
      "name": "ERC721InvalidSender",
      "type": "error"
    },
    {
      "inputs": [
        {
          "internalType": "uint256",
          "name": "tokenId",
          "type": "uint256"
        }
      ],
      "name": "ERC721NonexistentToken",
      "type": "error"
    },
    {
      "inputs": [],
      "name": "FailedToLockFunds",
      "type": "error"
    },
    {
      "inputs": [],
      "name": "InvalidAmount",
      "type": "error"
    },
    {
      "inputs": [
        {
          "internalType": "string",
          "name": "message",
          "type": "string"
        }
      ],
      "name": "InvalidEntry",
      "type": "error"
    },
    {
      "inputs": [],
      "name": "InvalidToken",
      "type": "error"
    },
    {
      "inputs": [],
      "name": "MissionAlreadyCompleted",
      "type": "error"
    },
    {
      "inputs": [],
      "name": "MissionAlreadyExists",
      "type": "error"
    },
    {
      "inputs": [],
      "name": "MissionNotFound",
      "type": "error"
    },
    {
      "inputs": [],
      "name": "MissionNotLocked",
      "type": "error"
    },
    {
      "inputs": [
        {
          "internalType": "address",
          "name": "owner",
          "type": "address"
        }
      ],
      "name": "OwnableInvalidOwner",
      "type": "error"
    },
    {
      "inputs": [
        {
          "internalType": "address",
          "name": "account",
          "type": "address"
        }
      ],
      "name": "OwnableUnauthorizedAccount",
      "type": "error"
    },
    {
      "anonymous": false,
      "inputs": [
        {
          "indexed": true,
          "internalType": "address",
          "name": "owner",
          "type": "address"
        },
        {
          "indexed": true,
          "internalType": "address",
          "name": "approved",
          "type": "address"
        },
        {
          "indexed": true,
          "internalType": "uint256",
          "name": "tokenId",
          "type": "uint256"
        }
      ],
      "name": "Approval",
      "type": "event"
    },
    {
      "anonymous": false,
      "inputs": [
        {
          "indexed": true,
          "internalType": "address",
          "name": "owner",
          "type": "address"
        },
        {
          "indexed": true,
          "internalType": "address",
          "name": "operator",
          "type": "address"
        },
        {
          "indexed": false,
          "internalType": "bool",
          "name": "approved",
          "type": "bool"
        }
      ],
      "name": "ApprovalForAll",
      "type": "event"
    },
    {
      "anonymous": false,
      "inputs": [
        {
          "indexed": false,
          "internalType": "string",
          "name": "missionId",
          "type": "string"
        }
      ],
      "name": "MissionCanceled",
      "type": "event"
    },
    {
      "anonymous": false,
      "inputs": [
        {
          "indexed": false,
          "internalType": "string",
          "name": "missionId",
          "type": "string"
        },
        {
          "indexed": false,
          "internalType": "address",
          "name": "worker",
          "type": "address"
        },
        {
          "indexed": false,
          "internalType": "uint256",
          "name": "workerReward",
          "type": "uint256"
        },
        {
          "indexed": false,
          "internalType": "uint256",
          "name": "beforeNFT",
          "type": "uint256"
        },
        {
          "indexed": false,
          "internalType": "uint256",
          "name": "afterNFT",
          "type": "uint256"
        }
      ],
      "name": "MissionCompleted",
      "type": "event"
    },
    {
      "anonymous": false,
      "inputs": [
        {
          "indexed": false,
          "internalType": "string",
          "name": "missionId",
          "type": "string"
        },
        {
          "indexed": false,
          "internalType": "address",
          "name": "worker",
          "type": "address"
        },
        {
          "indexed": false,
          "internalType": "address",
          "name": "ngo",
          "type": "address"
        },
        {
          "indexed": false,
          "internalType": "uint256",
          "name": "amount",
          "type": "uint256"
        }
      ],
      "name": "MissionCreated",
      "type": "event"
    },
    {
      "anonymous": false,
      "inputs": [
        {
          "indexed": false,
          "internalType": "uint256",
          "name": "tokenId",
          "type": "uint256"
        },
        {
          "indexed": false,
          "internalType": "string",
          "name": "missionId",
          "type": "string"
        },
        {
          "indexed": false,
          "internalType": "address",
          "name": "worker",
          "type": "address"
        },
        {
          "indexed": false,
          "internalType": "uint8",
          "name": "photoType",
          "type": "uint8"
        }
      ],
      "name": "NFTMinted",
      "type": "event"
    },
    {
      "anonymous": false,
      "inputs": [
        {
          "indexed": true,
          "internalType": "address",
          "name": "previousOwner",
          "type": "address"
        },
        {
          "indexed": true,
          "internalType": "address",
          "name": "newOwner",
          "type": "address"
        }
      ],
      "name": "OwnershipTransferred",
      "type": "event"
    },
    {
      "anonymous": false,
      "inputs": [
        {
          "indexed": false,
          "internalType": "address",
          "name": "token",
          "type": "address"
        }
      ],
      "name": "TokenAdded",
      "type": "event"
    },
    {
      "anonymous": false,
      "inputs": [
        {
          "indexed": false,
          "internalType": "address",
          "name": "token",
          "type": "address"
        }
      ],
      "name": "TokenRemoved",
      "type": "event"
    },
    {
      "anonymous": false,
      "inputs": [
        {
          "indexed": true,
          "internalType": "address",
          "name": "from",
          "type": "address"
        },
        {
          "indexed": true,
          "internalType": "address",
          "name": "to",
          "type": "address"
        },
        {
          "indexed": true,
          "internalType": "uint256",
          "name": "tokenId",
          "type": "uint256"
        }
      ],
      "name": "Transfer",
      "type": "event"
    },
    {
      "inputs": [
        {
          "internalType": "address",
          "name": "",
          "type": "address"
        }
      ],
      "name": "acceptedTokens",
      "outputs": [
        {
          "internalType": "bool",
          "name": "",
          "type": "bool"
        }
      ],
      "stateMutability": "view",
      "type": "function"
    },
    {
      "inputs": [
        {
          "internalType": "address",
          "name": "token",
          "type": "address"
        }
      ],
      "name": "addToken",
      "outputs": [],
      "stateMutability": "nonpayable",
      "type": "function"
    },
    {
      "inputs": [
        {
          "internalType": "address",
          "name": "to",
          "type": "address"
        },
        {
          "internalType": "uint256",
          "name": "tokenId",
          "type": "uint256"
        }
      ],
      "name": "approve",
      "outputs": [],
      "stateMutability": "nonpayable",
      "type": "function"
    },
    {
      "inputs": [
        {
          "internalType": "address",
          "name": "owner",
          "type": "address"
        }
      ],
      "name": "balanceOf",
      "outputs": [
        {
          "internalType": "uint256",
          "name": "",
          "type": "uint256"
        }
      ],
      "stateMutability": "view",
      "type": "function"
    },
    {
      "inputs": [
        {
          "internalType": "string",
          "name": "missionId",
          "type": "string"
        }
      ],
      "name": "cancelMission",
      "outputs": [],
      "stateMutability": "nonpayable",
      "type": "function"
    },
    {
      "inputs": [
        {
          "internalType": "string",
          "name": "missionId",
          "type": "string"
        }
      ],
      "name": "completeMission",
      "outputs": [
        {
          "internalType": "uint256",
          "name": "afterNFTId",
          "type": "uint256"
        }
      ],
      "stateMutability": "nonpayable",
      "type": "function"
    },
    {
      "inputs": [
        {
          "internalType": "string",
          "name": "missionId",
          "type": "string"
        },
        {
          "internalType": "address",
          "name": "token",
          "type": "address"
        },
        {
          "internalType": "uint256",
          "name": "amount",
          "type": "uint256"
        },
        {
          "internalType": "address",
          "name": "worker",
          "type": "address"
        }
      ],
      "name": "createMission",
      "outputs": [
        {
          "internalType": "uint256",
          "name": "beforeNFTId",
          "type": "uint256"
        }
      ],
      "stateMutability": "nonpayable",
      "type": "function"
    },
    {
      "inputs": [
        {
          "internalType": "uint256",
          "name": "tokenId",
          "type": "uint256"
        }
      ],
      "name": "getApproved",
      "outputs": [
        {
          "internalType": "address",
          "name": "",
          "type": "address"
        }
      ],
      "stateMutability": "view",
      "type": "function"
    },
    {
      "inputs": [
        {
          "internalType": "string",
          "name": "missionId",
          "type": "string"
        }
      ],
      "name": "getMissionDetails",
      "outputs": [
        {
          "components": [
            {
              "internalType": "address",
              "name": "token",
              "type": "address"
            },
            {
              "internalType": "uint256",
              "name": "amount",
              "type": "uint256"
            },
            {
              "internalType": "address",
              "name": "ngo",
              "type": "address"
            },
            {
              "internalType": "address",
              "name": "worker",
              "type": "address"
            },
            {
              "internalType": "bool",
              "name": "locked",
              "type": "bool"
            },
            {
              "internalType": "bool",
              "name": "completed",
              "type": "bool"
            },
            {
              "internalType": "uint256",
              "name": "beforeNFTId",
              "type": "uint256"
            },
            {
              "internalType": "uint256",
              "name": "afterNFTId",
              "type": "uint256"
            },
            {
              "internalType": "uint256",
              "name": "timestamp",
              "type": "uint256"
            }
          ],
          "internalType": "struct KreediaContract.Mission",
          "name": "",
          "type": "tuple"
        }
      ],
      "stateMutability": "view",
      "type": "function"
    },
    {
      "inputs": [
        {
          "internalType": "string",
          "name": "missionId",
          "type": "string"
        }
      ],
      "name": "getMissionProgress",
      "outputs": [
        {
          "internalType": "bool",
          "name": "exists",
          "type": "bool"
        },
        {
          "internalType": "bool",
          "name": "locked",
          "type": "bool"
        },
        {
          "internalType": "bool",
          "name": "completed",
          "type": "bool"
        },
        {
          "internalType": "uint256",
          "name": "beforeNFTId",
          "type": "uint256"
        },
        {
          "internalType": "uint256",
          "name": "afterNFTId",
          "type": "uint256"
        }
      ],
      "stateMutability": "view",
      "type": "function"
    },
    {
      "inputs": [
        {
          "internalType": "uint256",
          "name": "tokenId",
          "type": "uint256"
        }
      ],
      "name": "getNFTDetails",
      "outputs": [
        {
          "internalType": "string",
          "name": "missionId",
          "type": "string"
        },
        {
          "internalType": "uint8",
          "name": "photoType",
          "type": "uint8"
        },
        {
          "internalType": "address",
          "name": "owner",
          "type": "address"
        }
      ],
      "stateMutability": "view",
      "type": "function"
    },
    {
      "inputs": [
        {
          "internalType": "address",
          "name": "user",
          "type": "address"
        },
        {
          "internalType": "string",
          "name": "missionId",
          "type": "string"
        }
      ],
      "name": "hasUserMissionNFT",
      "outputs": [
        {
          "internalType": "bool",
          "name": "",
          "type": "bool"
        }
      ],
      "stateMutability": "view",
      "type": "function"
    },
    {
      "inputs": [
        {
          "internalType": "address",
          "name": "owner",
          "type": "address"
        },
        {
          "internalType": "address",
          "name": "operator",
          "type": "address"
        }
      ],
      "name": "isApprovedForAll",
      "outputs": [
        {
          "internalType": "bool",
          "name": "",
          "type": "bool"
        }
      ],
      "stateMutability": "view",
      "type": "function"
    },
    {
      "inputs": [
        {
          "internalType": "string",
          "name": "",
          "type": "string"
        }
      ],
      "name": "missions",
      "outputs": [
        {
          "internalType": "address",
          "name": "token",
          "type": "address"
        },
        {
          "internalType": "uint256",
          "name": "amount",
          "type": "uint256"
        },
        {
          "internalType": "address",
          "name": "ngo",
          "type": "address"
        },
        {
          "internalType": "address",
          "name": "worker",
          "type": "address"
        },
        {
          "internalType": "bool",
          "name": "locked",
          "type": "bool"
        },
        {
          "internalType": "bool",
          "name": "completed",
          "type": "bool"
        },
        {
          "internalType": "uint256",
          "name": "beforeNFTId",
          "type": "uint256"
        },
        {
          "internalType": "uint256",
          "name": "afterNFTId",
          "type": "uint256"
        },
        {
          "internalType": "uint256",
          "name": "timestamp",
          "type": "uint256"
        }
      ],
      "stateMutability": "view",
      "type": "function"
    },
    {
      "inputs": [],
      "name": "name",
      "outputs": [
        {
          "internalType": "string",
          "name": "",
          "type": "string"
        }
      ],
      "stateMutability": "view",
      "type": "function"
    },
    {
      "inputs": [],
      "name": "owner",
      "outputs": [
        {
          "internalType": "address",
          "name": "",
          "type": "address"
        }
      ],
      "stateMutability": "view",
      "type": "function"
    },
    {
      "inputs": [
        {
          "internalType": "uint256",
          "name": "tokenId",
          "type": "uint256"
        }
      ],
      "name": "ownerOf",
      "outputs": [
        {
          "internalType": "address",
          "name": "",
          "type": "address"
        }
      ],
      "stateMutability": "view",
      "type": "function"
    },
    {
      "inputs": [
        {
          "internalType": "address",
          "name": "token",
          "type": "address"
        }
      ],
      "name": "removeToken",
      "outputs": [],
      "stateMutability": "nonpayable",
      "type": "function"
    },
    {
      "inputs": [],
      "name": "renounceOwnership",
      "outputs": [],
      "stateMutability": "nonpayable",
      "type": "function"
    },
    {
      "inputs": [
        {
          "internalType": "address",
          "name": "from",
          "type": "address"
        },
        {
          "internalType": "address",
          "name": "to",
          "type": "address"
        },
        {
          "internalType": "uint256",
          "name": "tokenId",
          "type": "uint256"
        }
      ],
      "name": "safeTransferFrom",
      "outputs": [],
      "stateMutability": "nonpayable",
      "type": "function"
    },
    {
      "inputs": [
        {
          "internalType": "address",
          "name": "from",
          "type": "address"
        },
        {
          "internalType": "address",
          "name": "to",
          "type": "address"
        },
        {
          "internalType": "uint256",
          "name": "tokenId",
          "type": "uint256"
        },
        {
          "internalType": "bytes",
          "name": "data",
          "type": "bytes"
        }
      ],
      "name": "safeTransferFrom",
      "outputs": [],
      "stateMutability": "nonpayable",
      "type": "function"
    },
    {
      "inputs": [
        {
          "internalType": "address",
          "name": "operator",
          "type": "address"
        },
        {
          "internalType": "bool",
          "name": "approved",
          "type": "bool"
        }
      ],
      "name": "setApprovalForAll",
      "outputs": [],
      "stateMutability": "nonpayable",
      "type": "function"
    },
    {
      "inputs": [
        {
          "internalType": "bytes4",
          "name": "interfaceId",
          "type": "bytes4"
        }
      ],
      "name": "supportsInterface",
      "outputs": [
        {
          "internalType": "bool",
          "name": "",
          "type": "bool"
        }
      ],
      "stateMutability": "view",
      "type": "function"
    },
    {
      "inputs": [],
      "name": "symbol",
      "outputs": [
        {
          "internalType": "string",
          "name": "",
          "type": "string"
        }
      ],
      "stateMutability": "view",
      "type": "function"
    },
    {
      "inputs": [
        {
          "internalType": "uint256",
          "name": "",
          "type": "uint256"
        }
      ],
      "name": "tokenPhotoType",
      "outputs": [
        {
          "internalType": "uint8",
          "name": "",
          "type": "uint8"
        }
      ],
      "stateMutability": "view",
      "type": "function"
    },
    {
      "inputs": [
        {
          "internalType": "uint256",
          "name": "",
          "type": "uint256"
        }
      ],
      "name": "tokenToMission",
      "outputs": [
        {
          "internalType": "string",
          "name": "",
          "type": "string"
        }
      ],
      "stateMutability": "view",
      "type": "function"
    },
    {
      "inputs": [
        {
          "internalType": "uint256",
          "name": "tokenId",
          "type": "uint256"
        }
      ],
      "name": "tokenURI",
      "outputs": [
        {
          "internalType": "string",
          "name": "",
          "type": "string"
        }
      ],
      "stateMutability": "view",
      "type": "function"
    },
    {
      "inputs": [],
      "name": "totalSupply",
      "outputs": [
        {
          "internalType": "uint256",
          "name": "",
          "type": "uint256"
        }
      ],
      "stateMutability": "view",
      "type": "function"
    },
    {
      "inputs": [
        {
          "internalType": "address",
          "name": "from",
          "type": "address"
        },
        {
          "internalType": "address",
          "name": "to",
          "type": "address"
        },
        {
          "internalType": "uint256",
          "name": "tokenId",
          "type": "uint256"
        }
      ],
      "name": "transferFrom",
      "outputs": [],
      "stateMutability": "nonpayable",
      "type": "function"
    },
    {
      "inputs": [
        {
          "internalType": "address",
          "name": "newOwner",
          "type": "address"
        }
      ],
      "name": "transferOwnership",
      "outputs": [],
      "stateMutability": "nonpayable",
      "type": "function"
    },
    {
      "inputs": [
        {
          "internalType": "address",
          "name": "",
          "type": "address"
        },
        {
          "internalType": "string",
          "name": "",
          "type": "string"
        }
      ],
      "name": "userMissionNFT",
      "outputs": [
        {
          "internalType": "bool",
          "name": "",
          "type": "bool"
        }
      ],
      "stateMutability": "view",
      "type": "function"
    },
    {
      "inputs": [
        {
          "internalType": "address",
          "name": "token",
          "type": "address"
        }
      ],
      "name": "withdrawPlatformFees",
      "outputs": [],
      "stateMutability": "nonpayable",
      "type": "function"
    },
    {
      "inputs": [
        {
          "internalType": "address",
          "name": "",
          "type": "address"
        },
        {
          "internalType": "address",
          "name": "",
          "type": "address"
        }
      ],
      "name": "workerTotalEarned",
      "outputs": [
        {
          "internalType": "uint256",
          "name": "",
          "type": "uint256"
        }
      ],
      "stateMutability": "view",
      "type": "function"
    }
  ],
  "bytecode": "0x608060405234801561001057600080fd5b50604051614b00380380614b008339818101604052810190610032919061027a565b806040518060400160405280601281526020017f4b72656564696120496d70616374204e465400000000000000000000000000008152506040518060400160405280600781526020017f4b5245454449410000000000000000000000000000000000000000000000000081525081600090816100ae91906104f7565b5080600190816100be91906104f7565b505050600073ffffffffffffffffffffffffffffffffffffffff168173ffffffffffffffffffffffffffffffffffffffff16036101335760006040517f1e4fbdf700000000000000000000000000000000000000000000000000000000815260040161012a91906105d8565b60405180910390fd5b6101428161015160201b60201c565b506001600781905550506105f3565b6000600660009054906101000a900473ffffffffffffffffffffffffffffffffffffffff16905081600660006101000a81548173ffffffffffffffffffffffffffffffffffffffff021916908373ffffffffffffffffffffffffffffffffffffffff1602179055508173ffffffffffffffffffffffffffffffffffffffff168173ffffffffffffffffffffffffffffffffffffffff167f8be0079c531659141344cd1fd0a4f28419497f9722a3daafe3b4186f6b6457e060405160405180910390a35050565b600080fd5b600073ffffffffffffffffffffffffffffffffffffffff82169050919050565b60006102478261021c565b9050919050565b6102578161023c565b811461026257600080fd5b50565b6000815190506102748161024e565b92915050565b6000602082840312156102905761028f610217565b5b600061029e84828501610265565b91505092915050565b600081519050919050565b7f4e487b7100000000000000000000000000000000000000000000000000000000600052604160045260246000fd5b7f4e487b7100000000000000000000000000000000000000000000000000000000600052602260045260246000fd5b6000600282049050600182168061032857607f821691505b60208210810361033b5761033a6102e1565b5b50919050565b60008190508160005260206000209050919050565b60006020601f8301049050919050565b600082821b905092915050565b6000600883026103a37fffffffffffffffffffffffffffffffffffffffffffffffffffffffffffffffff82610366565b6103ad8683610366565b95508019841693508086168417925050509392505050565b6000819050919050565b6000819050919050565b60006103f46103ef6103ea846103c5565b6103cf565b6103c5565b9050919050565b6000819050919050565b61040e836103d9565b61042261041a826103fb565b848454610373565b825550505050565b600090565b61043761042a565b610442818484610405565b505050565b5b818110156104665761045b60008261042f565b600181019050610448565b5050565b601f8211156104ab5761047c81610341565b61048584610356565b81016020851015610494578190505b6104a86104a085610356565b830182610447565b50505b505050565b600082821c905092915050565b60006104ce600019846008026104b0565b1980831691505092915050565b60006104e783836104bd565b9150826002028217905092915050565b610500826102a7565b67ffffffffffffffff811115610519576105186102b2565b5b6105238254610310565b61052e82828561046a565b600060209050601f831160018114610561576000841561054f578287015190505b61055985826104db565b8655506105c1565b601f19841661056f86610341565b60005b8281101561059757848901518255600182019150602085019450602081019050610572565b868310156105b457848901516105b0601f8916826104bd565b8355505b6001600288020188555050505b505050505050565b6105d28161023c565b82525050565b60006020820190506105ed60008301846105c9565b92915050565b6144fe806106026000396000f3fe608060405234801561001057600080fd5b50600436106101fb5760003560e01c806370a082311161011a578063b88d4fde116100ad578063d833658a1161007c578063d833658a14610638578063de74d7be14610668578063e985e9c5146106a0578063ec3889b5146106d0578063f2fde38b146106ec576101fb565b8063b88d4fde1461059c578063c87b56dd146105b8578063cd60782a146105e8578063d48bfca71461061c576101fb565b80638da5cb5b116100e95780638da5cb5b1461051457806395d89b4114610532578063a22cb46514610550578063b6b2c58f1461056c576101fb565b806370a0823114610478578063715018a6146104a857806382260f35146104b257806382dc4a05146104e4576101fb565b806323b872dd11610192578063542bbd6011610161578063542bbd60146103cc5780635fa7b584146103fc5780636352211e146104185780636df3eb5814610448576101fb565b806323b872dd1461033457806339302dfb1461035057806342842e0e14610380578063463317d21461039c576101fb565b8063095ea7b3116101ce578063095ea7b3146102ae5780630c0f6643146102ca57806315c5c464146102e657806318160ddd14610316576101fb565b806301ffc9a71461020057806306fdde0314610230578063081812fc1461024e578063081f414a1461027e575b600080fd5b61021a600480360381019061021591906132be565b610708565b6040516102279190613306565b60405180910390f35b6102386107ea565b60405161024591906133b1565b60405180910390f35b61026860048036038101906102639190613409565b61087c565b6040516102759190613477565b60405180910390f35b610298600480360381019061029391906135f3565b610898565b6040516102a59190613306565b60405180910390f35b6102c860048036038101906102c3919061364f565b61090b565b005b6102e460048036038101906102df919061368f565b610921565b005b61030060048036038101906102fb9190613409565b610b0b565b60405161030d91906133b1565b60405180910390f35b61031e610bab565b60405161032b91906136e7565b60405180910390f35b61034e60048036038101906103499190613702565b610bc1565b005b61036a600480360381019061036591906135f3565b610cc3565b6040516103779190613306565b60405180910390f35b61039a60048036038101906103959190613702565b610d08565b005b6103b660048036038101906103b19190613755565b610d28565b6040516103c391906136e7565b60405180910390f35b6103e660048036038101906103e19190613795565b610d4d565b6040516103f391906136e7565b60405180910390f35b61041660048036038101906104119190613818565b61128d565b005b610432600480360381019061042d9190613409565b611327565b60405161043f9190613477565b60405180910390f35b610462600480360381019061045d919061368f565b611339565b60405161046f91906136e7565b60405180910390f35b610492600480360381019061048d9190613818565b6116f7565b60405161049f91906136e7565b60405180910390f35b6104b06117b1565b005b6104cc60048036038101906104c79190613409565b6117c5565b6040516104db93929190613861565b60405180910390f35b6104fe60048036038101906104f99190613818565b6118a0565b60405161050b9190613306565b60405180910390f35b61051c6118c0565b6040516105299190613477565b60405180910390f35b61053a6118ea565b60405161054791906133b1565b60405180910390f35b61056a600480360381019061056591906138cb565b61197c565b005b6105866004803603810190610581919061368f565b611992565b60405161059391906139ef565b60405180910390f35b6105b660048036038101906105b19190613aac565b611b2b565b005b6105d260048036038101906105cd9190613409565b611b50565b6040516105df91906133b1565b60405180910390f35b61060260048036038101906105fd919061368f565b611bb9565b604051610613959493929190613b2f565b60405180910390f35b61063660048036038101906106319190613818565b611d7e565b005b610652600480360381019061064d9190613409565b611e18565b60405161065f9190613b82565b60405180910390f35b610682600480360381019061067d919061368f565b611e38565b60405161069799989796959493929190613b9d565b60405180910390f35b6106ba60048036038101906106b59190613755565b611f16565b6040516106c79190613306565b60405180910390f35b6106ea60048036038101906106e59190613818565b611faa565b005b61070660048036038101906107019190613818565b6120c4565b005b60007f80ac58cd000000000000000000000000000000000000000000000000000000007bffffffffffffffffffffffffffffffffffffffffffffffffffffffff1916827bffffffffffffffffffffffffffffffffffffffffffffffffffffffff191614806107d357507f5b5e139f000000000000000000000000000000000000000000000000000000007bffffffffffffffffffffffffffffffffffffffffffffffffffffffff1916827bffffffffffffffffffffffffffffffffffffffffffffffffffffffff1916145b806107e357506107e28261214a565b5b9050919050565b6060600080546107f990613c59565b80601f016020809104026020016040519081016040528092919081815260200182805461082590613c59565b80156108725780601f1061084757610100808354040283529160200191610872565b820191906000526020600020905b81548152906001019060200180831161085557829003601f168201915b5050505050905090565b6000610887826121b4565b506108918261223c565b9050919050565b6000600d60008473ffffffffffffffffffffffffffffffffffffffff1673ffffffffffffffffffffffffffffffffffffffff168152602001908152602001600020826040516108e79190613cc6565b908152602001604051809103902060009054906101000a900460ff16905092915050565b61091d8282610918612279565b612281565b5050565b806000600a826040516109349190613cc6565b9081526020016040518091039020600101540361097d576040517f1c1e660500000000000000000000000000000000000000000000000000000000815260040160405180910390fd5b6000600a8360405161098f9190613cc6565b908152602001604051809103902090508060030160149054906101000a900460ff166109e7576040517fe4a8deff00000000000000000000000000000000000000000000000000000000815260040160405180910390fd5b60008160030160146101000a81548160ff0219169083151502179055508060000160009054906101000a900473ffffffffffffffffffffffffffffffffffffffff1673ffffffffffffffffffffffffffffffffffffffff1663a9059cbb8260020160009054906101000a900473ffffffffffffffffffffffffffffffffffffffff1683600101546040518363ffffffff1660e01b8152600401610a8b929190613cdd565b6020604051808303816000875af1158015610aaa573d6000803e3d6000fd5b505050506040513d601f19601f82011682018060405250810190610ace9190613d1b565b507f393111cb9b5f0f0d53161d40d2e1fc4f9ba998f60dd51eaad7ff8a9fd522442783604051610afe91906133b1565b60405180910390a1505050565b600b6020528060005260406000206000915090508054610b2a90613c59565b80601f0160208091040260200160405190810160405280929190818152602001828054610b5690613c59565b8015610ba35780601f10610b7857610100808354040283529160200191610ba3565b820191906000526020600020905b815481529060010190602001808311610b8657829003601f168201915b505050505081565b60006001600754610bbc9190613d77565b905090565b600073ffffffffffffffffffffffffffffffffffffffff168273ffffffffffffffffffffffffffffffffffffffff1603610c335760006040517f64a0ae92000000000000000000000000000000000000000000000000000000008152600401610c2a9190613477565b60405180910390fd5b6000610c478383610c42612279565b612293565b90508373ffffffffffffffffffffffffffffffffffffffff168173ffffffffffffffffffffffffffffffffffffffff1614610cbd578382826040517f64283d7b000000000000000000000000000000000000000000000000000000008152600401610cb493929190613dab565b60405180910390fd5b50505050565b600d602052816000526040600020818051602081018201805184825260208301602085012081835280955050505050506000915091509054906101000a900460ff1681565b610d2383838360405180602001604052806000815250611b2b565b505050565b6008602052816000526040600020602052806000526040600020600091509150505481565b600083600960008273ffffffffffffffffffffffffffffffffffffffff1673ffffffffffffffffffffffffffffffffffffffff16815260200190815260200160002060009054906101000a900460ff16610dd3576040517fc1ab6dc100000000000000000000000000000000000000000000000000000000815260040160405180910390fd5b60008411610e0d576040517f2c5211c600000000000000000000000000000000000000000000000000000000815260040160405180910390fd5b6000600a87604051610e1f9190613cc6565b90815260200160405180910390206001015414610e68576040517f0853f12200000000000000000000000000000000000000000000000000000000815260040160405180910390fd5b60008573ffffffffffffffffffffffffffffffffffffffff166370a08231336040518263ffffffff1660e01b8152600401610ea39190613477565b602060405180830381865afa158015610ec0573d6000803e3d6000fd5b505050506040513d601f19601f82011682018060405250810190610ee49190613df7565b905084811015610f20576040517f2c5211c600000000000000000000000000000000000000000000000000000000815260040160405180910390fd5b60008673ffffffffffffffffffffffffffffffffffffffff166323b872dd3330896040518463ffffffff1660e01b8152600401610f5f93929190613e24565b6020604051808303816000875af1158015610f7e573d6000803e3d6000fd5b505050506040513d601f19601f82011682018060405250810190610fa29190613d1b565b905080610fdb576040517fb8a6724d00000000000000000000000000000000000000000000000000000000815260040160405180910390fd5b610fe7858960006124ad565b93506040518061012001604052808873ffffffffffffffffffffffffffffffffffffffff1681526020018781526020013373ffffffffffffffffffffffffffffffffffffffff1681526020018673ffffffffffffffffffffffffffffffffffffffff1681526020016001151581526020016000151581526020018581526020016000815260200142815250600a896040516110829190613cc6565b908152602001604051809103902060008201518160000160006101000a81548173ffffffffffffffffffffffffffffffffffffffff021916908373ffffffffffffffffffffffffffffffffffffffff1602179055506020820151816001015560408201518160020160006101000a81548173ffffffffffffffffffffffffffffffffffffffff021916908373ffffffffffffffffffffffffffffffffffffffff16021790555060608201518160030160006101000a81548173ffffffffffffffffffffffffffffffffffffffff021916908373ffffffffffffffffffffffffffffffffffffffff16021790555060808201518160030160146101000a81548160ff02191690831515021790555060a08201518160030160156101000a81548160ff02191690831515021790555060c0820151816004015560e0820151816005015561010082015181600601559050506001600d60008773ffffffffffffffffffffffffffffffffffffffff1673ffffffffffffffffffffffffffffffffffffffff168152602001908152602001600020896040516112209190613cc6565b908152602001604051809103902060006101000a81548160ff0219169083151502179055507f82956e9de0ea41b83d532db757fd7bcbbb18836bacdba8bd5e05a9bfcc9514aa8886338960405161127a9493929190613e5b565b60405180910390a1505050949350505050565b611295612659565b6000600960008373ffffffffffffffffffffffffffffffffffffffff1673ffffffffffffffffffffffffffffffffffffffff16815260200190815260200160002060006101000a81548160ff0219169083151502179055507f4c910b69fe65a61f7531b9c5042b2329ca7179c77290aa7e2eb3afa3c8511fd38160405161131c9190613477565b60405180910390a150565b6000611332826121b4565b9050919050565b6000816000600a8260405161134e9190613cc6565b90815260200160405180910390206001015403611397576040517f1c1e660500000000000000000000000000000000000000000000000000000000815260040160405180910390fd5b6000600a846040516113a99190613cc6565b908152602001604051809103902090508060030160149054906101000a900460ff16611401576040517fe4a8deff00000000000000000000000000000000000000000000000000000000815260040160405180910390fd5b8060030160159054906101000a900460ff161561144a576040517f9795dcb600000000000000000000000000000000000000000000000000000000815260040160405180910390fd5b61147a8160030160009054906101000a900473ffffffffffffffffffffffffffffffffffffffff168560016124ad565b925082816005018190555060018160030160156101000a81548160ff02191690831515021790555060008160030160146101000a81548160ff021916908315150217905550600081600101549050600060646060836114d99190613ea7565b6114e39190613f18565b90508260000160009054906101000a900473ffffffffffffffffffffffffffffffffffffffff1673ffffffffffffffffffffffffffffffffffffffff1663a9059cbb8460030160009054906101000a900473ffffffffffffffffffffffffffffffffffffffff16836040518363ffffffff1660e01b8152600401611568929190613cdd565b6020604051808303816000875af1158015611587573d6000803e3d6000fd5b505050506040513d601f19601f820116820180604052508101906115ab9190613d1b565b5080600860008560030160009054906101000a900473ffffffffffffffffffffffffffffffffffffffff1673ffffffffffffffffffffffffffffffffffffffff1673ffffffffffffffffffffffffffffffffffffffff16815260200190815260200160002060008560000160009054906101000a900473ffffffffffffffffffffffffffffffffffffffff1673ffffffffffffffffffffffffffffffffffffffff1673ffffffffffffffffffffffffffffffffffffffff16815260200190815260200160002060008282546116809190613f49565b925050819055507f18f3ef5881540574cf66125d5b9895dd9b3683dcbacb329e011ecf61a84a2fbb868460030160009054906101000a900473ffffffffffffffffffffffffffffffffffffffff16838660040154896040516116e6959493929190613f7d565b60405180910390a150505050919050565b60008073ffffffffffffffffffffffffffffffffffffffff168273ffffffffffffffffffffffffffffffffffffffff160361176a5760006040517f89c62b640000000000000000000000000000000000000000000000000000000081526004016117619190613477565b60405180910390fd5b600360008373ffffffffffffffffffffffffffffffffffffffff1673ffffffffffffffffffffffffffffffffffffffff168152602001908152602001600020549050919050565b6117b9612659565b6117c360006126e0565b565b6060600080600b6000858152602001908152602001600020600c600086815260200190815260200160002060009054906101000a900460ff1661180786611327565b82805461181390613c59565b80601f016020809104026020016040519081016040528092919081815260200182805461183f90613c59565b801561188c5780601f106118615761010080835404028352916020019161188c565b820191906000526020600020905b81548152906001019060200180831161186f57829003601f168201915b505050505092509250925092509193909250565b60096020528060005260406000206000915054906101000a900460ff1681565b6000600660009054906101000a900473ffffffffffffffffffffffffffffffffffffffff16905090565b6060600180546118f990613c59565b80601f016020809104026020016040519081016040528092919081815260200182805461192590613c59565b80156119725780601f1061194757610100808354040283529160200191611972565b820191906000526020600020905b81548152906001019060200180831161195557829003601f168201915b5050505050905090565b61198e611987612279565b83836127a6565b5050565b61199a6131c0565b600a826040516119aa9190613cc6565b9081526020016040518091039020604051806101200160405290816000820160009054906101000a900473ffffffffffffffffffffffffffffffffffffffff1673ffffffffffffffffffffffffffffffffffffffff1673ffffffffffffffffffffffffffffffffffffffff168152602001600182015481526020016002820160009054906101000a900473ffffffffffffffffffffffffffffffffffffffff1673ffffffffffffffffffffffffffffffffffffffff1673ffffffffffffffffffffffffffffffffffffffff1681526020016003820160009054906101000a900473ffffffffffffffffffffffffffffffffffffffff1673ffffffffffffffffffffffffffffffffffffffff1673ffffffffffffffffffffffffffffffffffffffff1681526020016003820160149054906101000a900460ff161515151581526020016003820160159054906101000a900460ff1615151515815260200160048201548152602001600582015481526020016006820154815250509050919050565b611b36848484610bc1565b611b4a611b41612279565b85858585612915565b50505050565b6060611b5b826121b4565b506000611b66612ac6565b90506000815111611b865760405180602001604052806000815250611bb1565b80611b9084612add565b604051602001611ba1929190613fd7565b6040516020818303038152906040525b915050919050565b600080600080600080600a87604051611bd29190613cc6565b9081526020016040518091039020604051806101200160405290816000820160009054906101000a900473ffffffffffffffffffffffffffffffffffffffff1673ffffffffffffffffffffffffffffffffffffffff1673ffffffffffffffffffffffffffffffffffffffff168152602001600182015481526020016002820160009054906101000a900473ffffffffffffffffffffffffffffffffffffffff1673ffffffffffffffffffffffffffffffffffffffff1673ffffffffffffffffffffffffffffffffffffffff1681526020016003820160009054906101000a900473ffffffffffffffffffffffffffffffffffffffff1673ffffffffffffffffffffffffffffffffffffffff1673ffffffffffffffffffffffffffffffffffffffff1681526020016003820160149054906101000a900460ff161515151581526020016003820160159054906101000a900460ff1615151515815260200160048201548152602001600582015481526020016006820154815250509050600081602001511181608001518260a001518360c001518460e00151955095509550955095505091939590929450565b611d86612659565b6001600960008373ffffffffffffffffffffffffffffffffffffffff1673ffffffffffffffffffffffffffffffffffffffff16815260200190815260200160002060006101000a81548160ff0219169083151502179055507f784c8f4dbf0ffedd6e72c76501c545a70f8b203b30a26ce542bf92ba87c248a481604051611e0d9190613477565b60405180910390a150565b600c6020528060005260406000206000915054906101000a900460ff1681565b600a818051602081018201805184825260208301602085012081835280955050505050506000915090508060000160009054906101000a900473ffffffffffffffffffffffffffffffffffffffff16908060010154908060020160009054906101000a900473ffffffffffffffffffffffffffffffffffffffff16908060030160009054906101000a900473ffffffffffffffffffffffffffffffffffffffff16908060030160149054906101000a900460ff16908060030160159054906101000a900460ff16908060040154908060050154908060060154905089565b6000600560008473ffffffffffffffffffffffffffffffffffffffff1673ffffffffffffffffffffffffffffffffffffffff16815260200190815260200160002060008373ffffffffffffffffffffffffffffffffffffffff1673ffffffffffffffffffffffffffffffffffffffff16815260200190815260200160002060009054906101000a900460ff16905092915050565b611fb2612659565b60008173ffffffffffffffffffffffffffffffffffffffff166370a08231306040518263ffffffff1660e01b8152600401611fed9190613477565b602060405180830381865afa15801561200a573d6000803e3d6000fd5b505050506040513d601f19601f8201168201806040525081019061202e9190613df7565b905060008111156120c0578173ffffffffffffffffffffffffffffffffffffffff1663a9059cbb61205d6118c0565b836040518363ffffffff1660e01b815260040161207b929190613cdd565b6020604051808303816000875af115801561209a573d6000803e3d6000fd5b505050506040513d601f19601f820116820180604052508101906120be9190613d1b565b505b5050565b6120cc612659565b600073ffffffffffffffffffffffffffffffffffffffff168173ffffffffffffffffffffffffffffffffffffffff160361213e5760006040517f1e4fbdf70000000000000000000000000000000000000000000000000000000081526004016121359190613477565b60405180910390fd5b612147816126e0565b50565b60007f01ffc9a7000000000000000000000000000000000000000000000000000000007bffffffffffffffffffffffffffffffffffffffffffffffffffffffff1916827bffffffffffffffffffffffffffffffffffffffffffffffffffffffff1916149050919050565b6000806121c083612bab565b9050600073ffffffffffffffffffffffffffffffffffffffff168173ffffffffffffffffffffffffffffffffffffffff160361223357826040517f7e27328900000000000000000000000000000000000000000000000000000000815260040161222a91906136e7565b60405180910390fd5b80915050919050565b60006004600083815260200190815260200160002060009054906101000a900473ffffffffffffffffffffffffffffffffffffffff169050919050565b600033905090565b61228e8383836001612be8565b505050565b60008061229f84612bab565b9050600073ffffffffffffffffffffffffffffffffffffffff168373ffffffffffffffffffffffffffffffffffffffff16146122e1576122e0818486612dad565b5b600073ffffffffffffffffffffffffffffffffffffffff168173ffffffffffffffffffffffffffffffffffffffff161461237257612323600085600080612be8565b6001600360008373ffffffffffffffffffffffffffffffffffffffff1673ffffffffffffffffffffffffffffffffffffffff168152602001908152602001600020600082825403925050819055505b600073ffffffffffffffffffffffffffffffffffffffff168573ffffffffffffffffffffffffffffffffffffffff16146123f5576001600360008773ffffffffffffffffffffffffffffffffffffffff1673ffffffffffffffffffffffffffffffffffffffff168152602001908152602001600020600082825401925050819055505b846002600086815260200190815260200160002060006101000a81548173ffffffffffffffffffffffffffffffffffffffff021916908373ffffffffffffffffffffffffffffffffffffffff160217905550838573ffffffffffffffffffffffffffffffffffffffff168273ffffffffffffffffffffffffffffffffffffffff167fddf252ad1be2c89b69c2b068fc378daa952ba7f163c4a11628f55a4df523b3ef60405160405180910390a4809150509392505050565b60008073ffffffffffffffffffffffffffffffffffffffff168473ffffffffffffffffffffffffffffffffffffffff1603612514576040517fc1ab6dc100000000000000000000000000000000000000000000000000000000815260040160405180910390fd5b6000835103612558576040517f03e64b2300000000000000000000000000000000000000000000000000000000815260040161254f90614047565b60405180910390fd5b60018260ff16111561259f576040517f03e64b23000000000000000000000000000000000000000000000000000000008152600401612596906140b3565b60405180910390fd5b6000600760008154809291906125b4906140d3565b9190505590506125c48582612e71565b83600b600083815260200190815260200160002090816125e491906142c7565b5082600c600083815260200190815260200160002060006101000a81548160ff021916908360ff1602179055507f05d35be5c6f31e0993888846d54d3392fb5eb9798fd8863d71e81c82d5c5cae6818587866040516126469493929190614399565b60405180910390a1809150509392505050565b612661612279565b73ffffffffffffffffffffffffffffffffffffffff1661267f6118c0565b73ffffffffffffffffffffffffffffffffffffffff16146126de576126a2612279565b6040517f118cdaa70000000000000000000000000000000000000000000000000000000081526004016126d59190613477565b60405180910390fd5b565b6000600660009054906101000a900473ffffffffffffffffffffffffffffffffffffffff16905081600660006101000a81548173ffffffffffffffffffffffffffffffffffffffff021916908373ffffffffffffffffffffffffffffffffffffffff1602179055508173ffffffffffffffffffffffffffffffffffffffff168173ffffffffffffffffffffffffffffffffffffffff167f8be0079c531659141344cd1fd0a4f28419497f9722a3daafe3b4186f6b6457e060405160405180910390a35050565b600073ffffffffffffffffffffffffffffffffffffffff168273ffffffffffffffffffffffffffffffffffffffff160361281757816040517f5b08ba1800000000000000000000000000000000000000000000000000000000815260040161280e9190613477565b60405180910390fd5b80600560008573ffffffffffffffffffffffffffffffffffffffff1673ffffffffffffffffffffffffffffffffffffffff16815260200190815260200160002060008473ffffffffffffffffffffffffffffffffffffffff1673ffffffffffffffffffffffffffffffffffffffff16815260200190815260200160002060006101000a81548160ff0219169083151502179055508173ffffffffffffffffffffffffffffffffffffffff168373ffffffffffffffffffffffffffffffffffffffff167f17307eab39ab6107e8899845ad3d59bd9653f200f220920489ca2b5937696c31836040516129089190613306565b60405180910390a3505050565b60008373ffffffffffffffffffffffffffffffffffffffff163b1115612abf578273ffffffffffffffffffffffffffffffffffffffff1663150b7a02868685856040518563ffffffff1660e01b8152600401612974949392919061443a565b6020604051808303816000875af19250505080156129b057506040513d601f19601f820116820180604052508101906129ad919061449b565b60015b612a34573d80600081146129e0576040519150601f19603f3d011682016040523d82523d6000602084013e6129e5565b606091505b506000815103612a2c57836040517f64a0ae92000000000000000000000000000000000000000000000000000000008152600401612a239190613477565b60405180910390fd5b805160208201fd5b63150b7a0260e01b7bffffffffffffffffffffffffffffffffffffffffffffffffffffffff1916817bffffffffffffffffffffffffffffffffffffffffffffffffffffffff191614612abd57836040517f64a0ae92000000000000000000000000000000000000000000000000000000008152600401612ab49190613477565b60405180910390fd5b505b5050505050565b606060405180602001604052806000815250905090565b606060006001612aec84612e8f565b01905060008167ffffffffffffffff811115612b0b57612b0a6134c8565b5b6040519080825280601f01601f191660200182016040528015612b3d5781602001600182028036833780820191505090505b509050600082602083010190505b600115612ba0578080600190039150507f3031323334353637383961626364656600000000000000000000000000000000600a86061a8153600a8581612b9457612b93613ee9565b5b04945060008503612b4b575b819350505050919050565b60006002600083815260200190815260200160002060009054906101000a900473ffffffffffffffffffffffffffffffffffffffff169050919050565b8080612c215750600073ffffffffffffffffffffffffffffffffffffffff168273ffffffffffffffffffffffffffffffffffffffff1614155b15612d55576000612c31846121b4565b9050600073ffffffffffffffffffffffffffffffffffffffff168373ffffffffffffffffffffffffffffffffffffffff1614158015612c9c57508273ffffffffffffffffffffffffffffffffffffffff168173ffffffffffffffffffffffffffffffffffffffff1614155b8015612caf5750612cad8184611f16565b155b15612cf157826040517fa9fbf51f000000000000000000000000000000000000000000000000000000008152600401612ce89190613477565b60405180910390fd5b8115612d5357838573ffffffffffffffffffffffffffffffffffffffff168273ffffffffffffffffffffffffffffffffffffffff167f8c5be1e5ebec7d5bd14f71427d1e84f3dd0314c0f7b2291e5b200ac8c7c3b92560405160405180910390a45b505b836004600085815260200190815260200160002060006101000a81548173ffffffffffffffffffffffffffffffffffffffff021916908373ffffffffffffffffffffffffffffffffffffffff16021790555050505050565b612db8838383612fe2565b612e6c57600073ffffffffffffffffffffffffffffffffffffffff168373ffffffffffffffffffffffffffffffffffffffff1603612e2d57806040517f7e273289000000000000000000000000000000000000000000000000000000008152600401612e2491906136e7565b60405180910390fd5b81816040517f177e802f000000000000000000000000000000000000000000000000000000008152600401612e63929190613cdd565b60405180910390fd5b505050565b612e8b8282604051806020016040528060008152506130a3565b5050565b600080600090507a184f03e93ff9f4daa797ed6e38ed64bf6a1f0100000000000000008310612eed577a184f03e93ff9f4daa797ed6e38ed64bf6a1f0100000000000000008381612ee357612ee2613ee9565b5b0492506040810190505b6d04ee2d6d415b85acef81000000008310612f2a576d04ee2d6d415b85acef81000000008381612f2057612f1f613ee9565b5b0492506020810190505b662386f26fc100008310612f5957662386f26fc100008381612f4f57612f4e613ee9565b5b0492506010810190505b6305f5e1008310612f82576305f5e1008381612f7857612f77613ee9565b5b0492506008810190505b6127108310612fa7576127108381612f9d57612f9c613ee9565b5b0492506004810190505b60648310612fca5760648381612fc057612fbf613ee9565b5b0492506002810190505b600a8310612fd9576001810190505b80915050919050565b60008073ffffffffffffffffffffffffffffffffffffffff168373ffffffffffffffffffffffffffffffffffffffff161415801561309a57508273ffffffffffffffffffffffffffffffffffffffff168473ffffffffffffffffffffffffffffffffffffffff16148061305b575061305a8484611f16565b5b8061309957508273ffffffffffffffffffffffffffffffffffffffff166130818361223c565b73ffffffffffffffffffffffffffffffffffffffff16145b5b90509392505050565b6130ad83836130c7565b6130c26130b8612279565b6000858585612915565b505050565b600073ffffffffffffffffffffffffffffffffffffffff168273ffffffffffffffffffffffffffffffffffffffff16036131395760006040517f64a0ae920000000000000000000000000000000000000000000000000000000081526004016131309190613477565b60405180910390fd5b600061314783836000612293565b9050600073ffffffffffffffffffffffffffffffffffffffff168173ffffffffffffffffffffffffffffffffffffffff16146131bb5760006040517f73c6ac6e0000000000000000000000000000000000000000000000000000000081526004016131b29190613477565b60405180910390fd5b505050565b604051806101200160405280600073ffffffffffffffffffffffffffffffffffffffff16815260200160008152602001600073ffffffffffffffffffffffffffffffffffffffff168152602001600073ffffffffffffffffffffffffffffffffffffffff1681526020016000151581526020016000151581526020016000815260200160008152602001600081525090565b6000604051905090565b600080fd5b600080fd5b60007fffffffff0000000000000000000000000000000000000000000000000000000082169050919050565b61329b81613266565b81146132a657600080fd5b50565b6000813590506132b881613292565b92915050565b6000602082840312156132d4576132d361325c565b5b60006132e2848285016132a9565b91505092915050565b60008115159050919050565b613300816132eb565b82525050565b600060208201905061331b60008301846132f7565b92915050565b600081519050919050565b600082825260208201905092915050565b60005b8381101561335b578082015181840152602081019050613340565b60008484015250505050565b6000601f19601f8301169050919050565b600061338382613321565b61338d818561332c565b935061339d81856020860161333d565b6133a681613367565b840191505092915050565b600060208201905081810360008301526133cb8184613378565b905092915050565b6000819050919050565b6133e6816133d3565b81146133f157600080fd5b50565b600081359050613403816133dd565b92915050565b60006020828403121561341f5761341e61325c565b5b600061342d848285016133f4565b91505092915050565b600073ffffffffffffffffffffffffffffffffffffffff82169050919050565b600061346182613436565b9050919050565b61347181613456565b82525050565b600060208201905061348c6000830184613468565b92915050565b61349b81613456565b81146134a657600080fd5b50565b6000813590506134b881613492565b92915050565b600080fd5b600080fd5b7f4e487b7100000000000000000000000000000000000000000000000000000000600052604160045260246000fd5b61350082613367565b810181811067ffffffffffffffff8211171561351f5761351e6134c8565b5b80604052505050565b6000613532613252565b905061353e82826134f7565b919050565b600067ffffffffffffffff82111561355e5761355d6134c8565b5b61356782613367565b9050602081019050919050565b82818337600083830152505050565b600061359661359184613543565b613528565b9050828152602081018484840111156135b2576135b16134c3565b5b6135bd848285613574565b509392505050565b600082601f8301126135da576135d96134be565b5b81356135ea848260208601613583565b91505092915050565b6000806040838503121561360a5761360961325c565b5b6000613618858286016134a9565b925050602083013567ffffffffffffffff81111561363957613638613261565b5b613645858286016135c5565b9150509250929050565b600080604083850312156136665761366561325c565b5b6000613674858286016134a9565b9250506020613685858286016133f4565b9150509250929050565b6000602082840312156136a5576136a461325c565b5b600082013567ffffffffffffffff8111156136c3576136c2613261565b5b6136cf848285016135c5565b91505092915050565b6136e1816133d3565b82525050565b60006020820190506136fc60008301846136d8565b92915050565b60008060006060848603121561371b5761371a61325c565b5b6000613729868287016134a9565b935050602061373a868287016134a9565b925050604061374b868287016133f4565b9150509250925092565b6000806040838503121561376c5761376b61325c565b5b600061377a858286016134a9565b925050602061378b858286016134a9565b9150509250929050565b600080600080608085870312156137af576137ae61325c565b5b600085013567ffffffffffffffff8111156137cd576137cc613261565b5b6137d9878288016135c5565b94505060206137ea878288016134a9565b93505060406137fb878288016133f4565b925050606061380c878288016134a9565b91505092959194509250565b60006020828403121561382e5761382d61325c565b5b600061383c848285016134a9565b91505092915050565b600060ff82169050919050565b61385b81613845565b82525050565b6000606082019050818103600083015261387b8186613378565b905061388a6020830185613852565b6138976040830184613468565b949350505050565b6138a8816132eb565b81146138b357600080fd5b50565b6000813590506138c58161389f565b92915050565b600080604083850312156138e2576138e161325c565b5b60006138f0858286016134a9565b9250506020613901858286016138b6565b9150509250929050565b61391481613456565b82525050565b613923816133d3565b82525050565b613932816132eb565b82525050565b6101208201600082015161394f600085018261390b565b506020820151613962602085018261391a565b506040820151613975604085018261390b565b506060820151613988606085018261390b565b50608082015161399b6080850182613929565b5060a08201516139ae60a0850182613929565b5060c08201516139c160c085018261391a565b5060e08201516139d460e085018261391a565b506101008201516139e961010085018261391a565b50505050565b600061012082019050613a056000830184613938565b92915050565b600067ffffffffffffffff821115613a2657613a256134c8565b5b613a2f82613367565b9050602081019050919050565b6000613a4f613a4a84613a0b565b613528565b905082815260208101848484011115613a6b57613a6a6134c3565b5b613a76848285613574565b509392505050565b600082601f830112613a9357613a926134be565b5b8135613aa3848260208601613a3c565b91505092915050565b60008060008060808587031215613ac657613ac561325c565b5b6000613ad4878288016134a9565b9450506020613ae5878288016134a9565b9350506040613af6878288016133f4565b925050606085013567ffffffffffffffff811115613b1757613b16613261565b5b613b2387828801613a7e565b91505092959194509250565b600060a082019050613b4460008301886132f7565b613b5160208301876132f7565b613b5e60408301866132f7565b613b6b60608301856136d8565b613b7860808301846136d8565b9695505050505050565b6000602082019050613b976000830184613852565b92915050565b600061012082019050613bb3600083018c613468565b613bc0602083018b6136d8565b613bcd604083018a613468565b613bda6060830189613468565b613be760808301886132f7565b613bf460a08301876132f7565b613c0160c08301866136d8565b613c0e60e08301856136d8565b613c1c6101008301846136d8565b9a9950505050505050505050565b7f4e487b7100000000000000000000000000000000000000000000000000000000600052602260045260246000fd5b60006002820490506001821680613c7157607f821691505b602082108103613c8457613c83613c2a565b5b50919050565b600081905092915050565b6000613ca082613321565b613caa8185613c8a565b9350613cba81856020860161333d565b80840191505092915050565b6000613cd28284613c95565b915081905092915050565b6000604082019050613cf26000830185613468565b613cff60208301846136d8565b9392505050565b600081519050613d158161389f565b92915050565b600060208284031215613d3157613d3061325c565b5b6000613d3f84828501613d06565b91505092915050565b7f4e487b7100000000000000000000000000000000000000000000000000000000600052601160045260246000fd5b6000613d82826133d3565b9150613d8d836133d3565b9250828203905081811115613da557613da4613d48565b5b92915050565b6000606082019050613dc06000830186613468565b613dcd60208301856136d8565b613dda6040830184613468565b949350505050565b600081519050613df1816133dd565b92915050565b600060208284031215613e0d57613e0c61325c565b5b6000613e1b84828501613de2565b91505092915050565b6000606082019050613e396000830186613468565b613e466020830185613468565b613e5360408301846136d8565b949350505050565b60006080820190508181036000830152613e758187613378565b9050613e846020830186613468565b613e916040830185613468565b613e9e60608301846136d8565b95945050505050565b6000613eb2826133d3565b9150613ebd836133d3565b9250828202613ecb816133d3565b91508282048414831517613ee257613ee1613d48565b5b5092915050565b7f4e487b7100000000000000000000000000000000000000000000000000000000600052601260045260246000fd5b6000613f23826133d3565b9150613f2e836133d3565b925082613f3e57613f3d613ee9565b5b828204905092915050565b6000613f54826133d3565b9150613f5f836133d3565b9250828201905080821115613f7757613f76613d48565b5b92915050565b600060a0820190508181036000830152613f978188613378565b9050613fa66020830187613468565b613fb360408301866136d8565b613fc060608301856136d8565b613fcd60808301846136d8565b9695505050505050565b6000613fe38285613c95565b9150613fef8284613c95565b91508190509392505050565b7f4d697373696f6e20494420697320726571756972656400000000000000000000600082015250565b600061403160168361332c565b915061403c82613ffb565b602082019050919050565b6000602082019050818103600083015261406081614024565b9050919050565b7f496e76616c69642070686f746f20747970650000000000000000000000000000600082015250565b600061409d60128361332c565b91506140a882614067565b602082019050919050565b600060208201905081810360008301526140cc81614090565b9050919050565b60006140de826133d3565b91507fffffffffffffffffffffffffffffffffffffffffffffffffffffffffffffffff82036141105761410f613d48565b5b600182019050919050565b60008190508160005260206000209050919050565b60006020601f8301049050919050565b600082821b905092915050565b60006008830261417d7fffffffffffffffffffffffffffffffffffffffffffffffffffffffffffffffff82614140565b6141878683614140565b95508019841693508086168417925050509392505050565b6000819050919050565b60006141c46141bf6141ba846133d3565b61419f565b6133d3565b9050919050565b6000819050919050565b6141de836141a9565b6141f26141ea826141cb565b84845461414d565b825550505050565b600090565b6142076141fa565b6142128184846141d5565b505050565b5b818110156142365761422b6000826141ff565b600181019050614218565b5050565b601f82111561427b5761424c8161411b565b61425584614130565b81016020851015614264578190505b61427861427085614130565b830182614217565b50505b505050565b600082821c905092915050565b600061429e60001984600802614280565b1980831691505092915050565b60006142b7838361428d565b9150826002028217905092915050565b6142d082613321565b67ffffffffffffffff8111156142e9576142e86134c8565b5b6142f38254613c59565b6142fe82828561423a565b600060209050601f831160018114614331576000841561431f578287015190505b61432985826142ab565b865550614391565b601f19841661433f8661411b565b60005b8281101561436757848901518255600182019150602085019450602081019050614342565b868310156143845784890151614380601f89168261428d565b8355505b6001600288020188555050505b505050505050565b60006080820190506143ae60008301876136d8565b81810360208301526143c08186613378565b90506143cf6040830185613468565b6143dc6060830184613852565b95945050505050565b600081519050919050565b600082825260208201905092915050565b600061440c826143e5565b61441681856143f0565b935061442681856020860161333d565b61442f81613367565b840191505092915050565b600060808201905061444f6000830187613468565b61445c6020830186613468565b61446960408301856136d8565b818103606083015261447b8184614401565b905095945050505050565b60008151905061449581613292565b92915050565b6000602082840312156144b1576144b061325c565b5b60006144bf84828501614486565b9150509291505056fea264697066735822122057b7e206e81c979c9d0c9aebf426ac4b2cab05b693b23512b127131a76f4dd4364736f6c634300081c0033",
  "linkReferences": {},
  "deployedLinkReferences": {}
}